:060000000C94CC010C94ED
:1000060000000C9400000C9400000C9400000C946A
:1000160000000C9400000C9400000C9400000C945A
:1000260000000C9400000C9400000C9400000C944A
:1000360000000C94FC010C9400000C9400000C943D
:1000460000000C9400000C9400000C9400000C942A
:1000560000000C9400000C9400000C9400000C941A
:1000660000000C9400000C9400000C9400000C940A
:1000760000000C9400000C9400000C9400000C94FA
:1000860000000C940000320133013F014A01570180
:1000960062016D017D0187019001A201B501C601D2
:1000A600D501E601F60109560031050401001900E3
:1000B6007600310000000556003601007600360055
:1000C600000005560034010005560036010376008F
:1000D6003600000020222A2B2C5B3D5D7C7F000031
:1000E600000400020001800040002000100008000B
:1000F60004000200000000800040002000100008FC
:100106000040002000100008000400021027E80349
:1001160064000A0001000010000110000100303ADE
:100126002F00303A2F7069632E6A70670046525F5F
:100136004449534B5F4552520046525F494E545F05
:100146004552520046525F4E4F545F524541445904
:100156000046525F4E4F5F46494C450046525F4E41
:100166004F5F504154480046525F494E56414C49F4
:10017600445F4E414D450046525F44454E49454415
:100186000046525F45584953540046525F494E5601
:10019600414C49445F4F424A4543540046525F57DB
:1001A600524954455F50524F5445435445440046C6
:1001B600525F494E56414C49445F445249564500A8
:1001C60046525F4E4F545F454E41424C45440046B1
:1001D600525F4E4F5F46494C4553595354454D0067
:1001E60046525F4D4B46535F41424F525445440081
:1001F60046525F54494D454F5554004552524F5251
:100206003A2025700D0A004552524F204E4F20537A
:10021600444341524420004C4F474943414C2044FB
:1002260052495645203020004D4F554E54454420E6
:100236004F4B202020202020002041525155495666
:100246004F2043524941444F20002046494C452007
:100256003D205049432E4A5047200053495A4520D5
:10026600494D4147452020202020200036343020AB
:100276005820343830202020202020200043414DB3
:10028600455241204E414F2052580054414B452083
:10029600412050494354555245202020005741499A
:1002A6005448494E472E2E2E2E2E2E202020004515
:1002B60052524F522054414B452020202000524597
:1002C6004144494E47205049435455524520002049
:1002D6003D2042595445532020200053544F50503E
:1002E60045442052454144494E47005341564544F2
:1002F60020494E205344434152440043414D455208
:10030600412054544C20414E442020005344434144
:1003160052442041544D45474131323800505245F0
:1003260050415245205344434152442000000100AD
:10033600EBFE904D53444F53352E30004E4F204E1A
:10034600414D4520202020464154333220202000B4
:100356004E4F204E414D452020202046415420201E
:100366002020200080C001002D4E414E00494E46FF
:1003760000000300560924010A00560A280101005C
:10038600D60A34030200DF0A6A030100E30A6C039B
:100396000000F894EE27ECBBF1E0F5BFE5BFE09373
:1003A6006C008DE0A2E0BB27ED938A95E9F780E02B
:1003B60090E1A0E0B1E0ED930197E9F7E8E7F3E01B
:1003C60085919591009761F0A591B591059015904D
:1003D600BF01F00105900D920197E1F7FB01F0CF07
:1003E6008BBFEFEFEDBFE0E1EEBFC0E0D5E00C94D0
:1003F600F3030A921A92FA926A937A938A939A93D9
:10040600AA93BA93EA93FA93EFB7EA93E8EDEDBDB0
:10041600E0EFECBD0E94E008E991EFBFF991E991A8
:10042600B991A9919991899179916991F9901990C8
:1004360009901895AA93A881A13010F0A03108F070
:100446001CC0E1E0F2E0FA93EA93EA81ACE8B0E09E
:10045600F0E0EE0FFF1FEA0FFB1F0E943A1E662711
:1004660077270E94521E84E00E94431826960E9417
:10047600B719ADE0B2E00E94C3180C947506A6E366
:10048600B7E00E9446165E2EE03011F0A52DD2DFB1
:100496000895E0E0EA93A4E0B5E00E9490125E2E93
:1004A600E03019F0A52DC6DF0AC00E94B719ADE1EC
:1004B600B2E00E94BC19AEE2B2E00E94C318A6E503
:1004C600B9E00E9456160895E6E3F7E0FA93EA9338
:1004D600E6E5FAE0FA93EA93AAE00E94BD125E2EE0
:1004E600E03019F0A52DA6DF0AC00E94B719AFE3C8
:1004F600B2E00E94BC19A0E5B2E00E94C3180895BC
:10050600E6E3F7E0FA93EA93E1E6FAE0FA93EA9390
:10051600E0E2F0E0FA93EA93A6E0B0E00E94EE1380
:100526005E2EE03011F4A52D85DF0895AA931A9367
:100536000A9315E000E0EA810E1768F4A02FB0E0F8
:10054600AF59B54FE12FF0E0EE57F54FE081EC9350
:100556000F5F1F5FF0CFD4DF1981088123960895BE
:100566002297E1E0E883AAE22AD0E0E0E983E98184
:10057600F0E0E857F54FA081AF3F71F4E981F0E074
:10058600E657F54FA081A93D39F4E981F0E0E5573A
:10059600F54FA081A63709F008C0E0E0E883A981FD
:1005A600AC5FC4DF6CDFE88121C0E981EF5FE983DE
:1005B600A981A532E1F6A1E2B9DFE88117C0AA93C5
:1005C600219730D00E94EF16E883E091CC0AF0E044
:1005D600EE57F54FA881A083E091CC0AEF5FE09338
:1005E600CC0AE981A091CC0AEA1761F72296089510
:1005F600ACEAB0E00E94C319A6EBB0E00E9458191D
:10060600309749F00E94B719A1E6B2E00E94BC19E2
:10061600A2E7B2E004C00E94B719A3E8B2E00E94C4
:10062600C31808951A9310E0103440F4E12FF0E057
:10063600EE57F54FA0E0A0831F5FF6CFE0E0E09312
:10064600CC0A10E0113240F4E12FF0E0EF59F54FFB
:10065600A0E0A0831F5FF6CF0C94F408ACEBB0E0EB
:100666000E94C319A2ECB0E00E945819309749F0D5
:100676000E94B719A1E9B2E00E94BC19A3EAB2E050
:1006860004C00E94B719A5EBB2E00E94C3180895F2
:10069600BA93AA932297EA81FB8104900882E1E04B
:1006A600E983E881F0E03196A981B0E0AE17BF0793
:1006B6006CF4E981AA81BB81F0E0EA0FFB1FA491EB
:1006C6000E94F316E981EF5FE983EBCF0C948C0966
:1006D600A9DFA8ECB0E0DCDFA9E071DFB091890A00
:1006E600A0E0E0918A0AF0E0EA0FFB1FE093CD0A52
:1006F600F093CE0A0E94B719A4ECB2E00E94BC198E
:10070600E091CD0AF091CE0A662777270E94521E05
:10071600A2ECBAE00E946F19A2ECBAE00E94B418EB
:10072600A5EDB2E00E94C31808950E94CD190E945B
:10073600D6190E94051EE093D30AE091CF0AE093F2
:10074600D40AA6E50E94DB19A2E30E94F316ACE0E8
:100756000E94DB19AAE00E94DB19A0E00E94F316B2
:10076600A091D30A0E94F316A091D40A0E94DB1925
:10077600A0E00E94DB19A0E20E94DB19AAE00E9419
:10078600F316E091CF0AF091D00A6091D10A7091E8
:10079600D20AE05EFF4F6F4F7F4FE093CF0AF09390
:1007A600D00A6093D10A7093D20A0895AEECB0E0F5
:1007B6000E94C319A4EDB0E00E945819309749F081
:1007C6000E94B719A1EEB2E00E94BC19A1EFB2E0F7
:1007D60004C00E94B719A3E8B2E00E94C3180895A6
:1007E600E0E0EFBDE2E0EEBDE8EDEDBDE0EFECBD33
:1007F600E4E0E7BFE0E0E5BBEFEFE4BBE0E0EBB948
:10080600E8E1EAB9E6E0E0939500E0E0E0939000E5
:10081600ECE0E9B9E0E0E093CC0A7894A0E10E942C
:10082600D618A1E0B3E00E94BC19A2E1B3E00E9491
:10083600E0190E9493180E94B719A3E2B3E00E9440
:10084600E01927DEACEDB5E00E94361D3DDEA8EED0
:10085600B3E00E94361D0E94B719CADEA0EDB7E0CC
:100866000E94361DFBDEA0EABFE00E94361D30DF87
:10087600A0EDB7E00E94361DE1E0E093D50AE091D5
:10088600D50AE030A9F051DF6BDEE093D50AE0919E
:10089600CD0AF091CE0AB0960E94CD196627772729
:1008A6000E94781E24F0E0E0E093D50AE8DDE7CF69
:1008B6007DDFFFCFFFCFAA930E947F1E20E00C8131
:1008C600AD81BE813D91AD83BE8318E0220FE22F3C
:1008D600E327E07811F0E9E02E27330F1150B1F746
:1008E600015071F7E22FEE0FE1600E94861EFAC4F6
:1008F6001A93E2E3E093D80AEFEFEFB9779BFECFC6
:10090600EFEFEFB9779BFECF1FB11F3F21F0E091CC
:10091600D80AE03009F401C0F3CFE12F62C4C09ACF
:10092600EFEFEFB9779BFECF0895BA93AA930E9493
:100936007F1EE4E1E093D70AEFEFEFB9779BFECF96
:100946001FB11F3F21F4E091D70AE03009F401C03E
:10095600F3CF1E3F21F0E0E00E94861E9EC22E814C
:100966003F81EFEFEFB9779BFECF3F932F932F5F3A
:100976003F4FEFB1AF91BF91EC93EFEFEFB9779B9C
:10098600FECF3F932F932F5F3F4FEFB1AF91BF91B4
:10099600EC93EFEFEFB9779BFECF3F932F932F5F4B
:1009A6003F4FEFB1AF91BF91EC93EFEFEFB9779B6C
:1009B600FECF3F932F932F5F3F4FEFB1AF91BF9184
:1009C600EC93EC81FD813497EC83FD8351F6EFEFD8
:1009D600EFB9779BFECFEFEFEFB9779BFECFE1E064
:1009E6000E94861E5AC2AA930E947F1E81DFEF3F95
:1009F60021F0E0E00E94861E75C4EC81EFB9779B7A
:100A0600FECFAC81AD3F41F100E02D813E81D901A1
:100A16002F5F3F4FEC91EFB9779BFECFD9012F5F48
:100A26003F4FEC91EFB9779BFECF015081F7EFEF87
:100A3600EFB9779BFECFEFEFEFB9779BFECFEFEFE6
:100A4600EFB9779BFECF1FB1E12FEF71E53021F0B3
:100A5600E0E00E94861E46C4E1E00E94861E42C473
:100A66000E94571E1A930A93EE81E07881F0EE8178
:100A7600EF77EE83E7E7EA93A0E0B0E080E090E06E
:100A8600EFDF0E2F023018F0198108812BC4AE81DA
:100A9600AC3449F044DFC0982BDFEF3F21F0EFEF95
:100AA600198108811FC4EE81EFB9779BFECFED81D6
:100AB600EFB9779BFECFEC81EFB9779BFECFEB8149
:100AC600EFB9779BFECFEA81EFB9779BFECF11E0B6
:100AD600AE81A03411F415E904C0AE81A83409F43E
:100AE60017E81FB9779BFECFAE81AC3421F4EFEF48
:100AF600EFB9779BFECF1FEFEFEFEFB9779BFECFF6
:100B06000FB107FF02C0115009F401C0F5CFE02F65
:100B160019810881E7C3BA93AA931A9314E0EFEFF9
:100B2600EFB9779BFECFA981BA811196A983BA83C3
:100B36001197EFB1EC93115091F7B9C4AA9324978A
:100B46000E947F1EE885E03011F0E1E0BFC0EAE0D8
:100B5600E093D70AE091D70AE030E1F7E091D60AB0
:100B6600E27009F0B1C0B89AC09AE8B3E97FE8BB71
:100B7600C39ABB98E7B3E760E7BBE2E5EDB9E0E00F
:100B8600EEB93FEF1AE0EFEFEFB9779BFECF1150CA
:100B9600D1F7E0E4EA93A0E0B0E080E090E060DF27
:100BA6000E2F3150013011F0303009F401C0EACF78
:100BB60030E0013009F068C0E4E6E093D70AE8E4E3
:100BC600EA93AAEAB1E080E090E04ADFE13091F5ED
:100BD600DE011496A0DFAE81A13019F4AF81AA3AE6
:100BE60009F027C0E091D70AE03049F0E9EEEA9330
:100BF600A0E0B0E080E090E433DFE03009F401C02B
:100C0600F1CFE091D70AE03049F0EAE7EA93A0E0B5
:100C1600B0E080E090E024DFE03009F00AC0DE01B9
:100C2600149679DFEC81E07411F0ECE001C0E4E0A9
:100C36003E2F2AC0E9EEEA93A0E0B0E080E090E023
:100C46000FDFE23018F432E009EE02C031E001E4D1
:100C5600E091D70AE03041F00A93A0E0B0E080E0EE
:100C660090E0FEDEE03009F401C0F2CFE091D70A51
:100C7600E03049F0E0E5EA93A0E0B2E080E090E001
:100C8600EFDEE03009F030E03093D90A48DE30304C
:100C960051F0E091D60AEE7FE093D60AE0E5EDB991
:100CA600E1E0EEB911C0C09823DE39DEE0E0EDB92F
:100CB600E7B3E07FE7BBE8B3E07FE8BBB898E09135
:100CC600D60AE160E093D60AE091D60A0E94861E13
:100CD60029960895AA93E881E03011F0E1E002C078
:100CE600E091D60A21960895AA93EF81E03019F48F
:100CF600E881E03011F4E4E0D0C0E091D60AE1707A
:100D060011F0E3E0CAC0E091D90AE87071F4E98114
:100D1600FA816B817C81A0E0B2E080E090E00E94E5
:100D2600A71DE983FA836B837C83A881A130A9F48C
:100D3600E1E5EA93AA81BB818C819D8191DEE03059
:100D460059F4ED81FE81FA93EA93A0E0B2E0EDDD7D
:100D5600E03011F0E0E0E88323C0E2E5EA93AA81FF
:100D6600BB818C819D817CDEE030D1F4ED81FE81FA
:100D7600FA93EA93A0E0B2E0D8DDE03051F0ED81DD
:100D8600FE81E050FE4FED83FE83E881E150E8836B
:100D960069F7ECE4EA93A0E0B0E080E090E060DE82
:100DA600BEDDE881E03011F0E1E001C0E0E075C0B1
:100DB600AA93EF81E03019F4E881E03011F4E4E021
:100DC6006CC0E091D60AE17011F0E3E066C0E091F4
:100DD600D60AE47011F0E2E060C0E091D90AE8704A
:100DE60071F4E981FA816B817C81A0E0B2E080E058
:100DF60090E00E94A71DE983FA836B837C83A88118
:100E0600A130A1F4E8E5EA93AA81BB818C819D819A
:100E160027DEE03051F4ED81FE81FA93EA93AEEFDE
:100E2600E2DDE03011F0E0E0E88330C0E091D90A7D
:100E3600E67039F0E7EDEA93A981BB278827992761
:100E46000FDEE9E5EA93AA81BB818C819D8108DEEC
:100E5600E030E1F4ED81FE81FA93EA93ACEFC3DD75
:100E6600E03051F0ED81FE81E050FE4FED83FE83D0
:100E7600E881E150E88371F7E0E0F0E0FA93EA9365
:100E8600ADEFB1DDE03011F4E1E0E88348DDE88163
:100E9600E03011F0E1E001C0E0E028960895BA9351
:100EA600AA9360970E947F1EEF89E03011F0E4E07C
:100EB60080C1E091D60AE17011F0E3E07AC111E059
:100EC600EE89E03031F4C09813DDEF3F09F410E00D
:100ED6006EC1E13009F05BC0E9E4EA93A0E0B0E05E
:100EE60080E090E0BDDDE03049F4FE013496FA93EF
:100EF600EA93A0E1B0E019DDE03009F447C0EC81E7
:100F0600E295EF70E695E695E13069F4E0E0FC8560
:100F1600AD85B0E0EA0FFB1F31969F01D901882706
:100F26009927EAE02CC0E985EF70AE2FEE85E078D0
:100F3600EE1FE0E0EE1FAE0FED85E370EE0FEA0F59
:100F4600EE5F0E2FEC85E295EF70E695E695AE2FF7
:100F5600EB85F0E00E94851DB0E0AE0FBF1FEA856D
:100F6600E370F0E00E94851DFE2FE0E0EA0FFB1F14
:100F760031969F01D90188279927E02FE9500E94D1
:100F8600691DAC89BD890E94301E10E010C1E23097
:100F960041F4AC89BD89E0E0F2E0ED93FC9310E00A
:100FA60006C1E33009F0A9C0E091D90AE47071F1F5
:100FB600EDECEA93A0E0B0E080E090E051DDE030B7
:100FC60021F5EFEFEFB9779BFECFFE013496FA934A
:100FD600EA93A0E1B0E0A9DCE030B9F000E300302C
:100FE60031F0EFEFEFB9779BFECF0150F8CFEE85EA
:100FF600E295EF70A0E1B0E080E090E00E94691D0C
:10100600AC89BD890E94301E10E076C0E9E4EA93FF
:10101600A0E0B0E080E090E023DDE03009F06CC0B5
:10102600FE013496FA93EA93A0E1B0E07EDCE0306C
:1010360009F462C0E091D90AE27051F1EE85EF73CE
:10104600FF27662777270E94931D7F936F93FF9351
:10105600EF93EF85E078FF2766277727DF01CB013F
:10106600E7E00E94751DAF91BF918F919F910E94FD
:10107600441DEF5FFF4F6F4F7F4FDF01CB01E989C3
:10108600E295EF70E695E695E1500E94691D2FC046
:10109600EE85EC77E695E695FF2766277727EF5FDF
:1010A600FF4F6F4F7F4F7F936F93FF93EF93EF85C4
:1010B600E370FF2766277727DF01CB01E3E00E9475
:1010C600691DDF01CB01EF85E07EE295EF70E695C5
:1010D600FF27662777270E94441DEF5FFF4F6F4F5C
:1010E6007F4FAF91BF918F919F910E94A71DAC89B1
:1010F600BD890E94301E10E05AC0EA3039F4E091F2
:10110600D90AAC89BD89EC9310E051C0EB3011F4DB
:1011160009E403C0EC3001F50AE40A93A0E0B0E06C
:1011260080E090E09DDCE030B1F4EC89FD89FA9333
:10113600EA93A0E1B0E0F9DBE03069F0EC89FD89E3
:10114600FA93EA93AFE0B7DBAE2FEC89FD89E7852A
:10115600EA1709F410E02BC0ED3071F4EAE7EA93E0
:10116600A0E0B0E080E090E07BDCE03021F4AC89E8
:10117600BD89D1DC10E01BC0EE30C1F4EDECEA9382
:10118600A0E0B0E080E090E06BDCE03071F4EFEFDF
:10119600EFB9779BFECFEC89FD89FA93EA93A0E439
:1011A600B0E0C3DBE03009F010E001C014E0B7DBCB
:1011B600E12F0E94861E689608951A931091D70A09
:1011C600103019F011501093D70A1091D80A103028
:1011D60019F011501093D80AE091D60AEB7FE093EC
:1011E600D60A199108952797A0910005B091010597
:1011F600109731F0A0910205B0910305109729F4DC
:10120600E0E0F0E061E27AE36DC0FE013696FA9323
:10121600EA93FE013796FA93EA93DE011896E09177
:101226000005F09101050995FE013396FA93EA93BC
:10123600FE013496FA93EA93DE011496E0910205D4
:10124600F09103050995E881F981EC5BF740662783
:101256007727DF01CB01E9E10E94691D7F936F9338
:10126600FF93EF93EA810E94E619E5E10E94691D6A
:10127600AF91BF918F919F910E94581DDF01CB01C5
:10128600EB81F0E00E94A21D0E949D1D0E94581D48
:101296007F936F93FF93EF93EE810E94E619EBE045
:1012A6000E94691DAF91BF918F919F910E94581D19
:1012B6007F936F93FF93EF93ED810E94E619E5E02C
:1012C6000E94691DAF91BF918F919F910E94581DF9
:1012D600DF01CB01EC81F0E0F595E7950E94A21DB8
:1012E6000E94581D27960895AA931A93EA81FB81B6
:1012F600E4911E2FE03019F0E981E11709F406C0E8
:10130600EA81FB813196EA83FB83F0CFE12FF0E09F
:101316001881249608950E94571E24971A93A9852A
:10132600BA859E960E94251E0E94EC190E94F1190C
:101336000E94F6190E94731E09F452C0E985FA85C7
:10134600E481E03079F10E94FB19E030F1F5A985DE
:10135600BA851496E0E0EC93E985FA850E940D1AA9
:101366000D01A985BA855A960E94251ED0010E94B4
:10137600441D0E94F6190E94781EA0F4E985FA859C
:101386001381123078F0A985BA855A960E94251ED7
:101396000E94F6190E94441D0E94EC190E94FB1936
:1013A6001150EFCF0E94F1190E94691EC9F0E9851C
:1013B600FA85A181AA93EA85FB85F296FA93EA93C8
:1013C6000E94121A0E94171A21F0E1E018812B964A
:1013D60008950E94F119A985BA859E960E94301E2D
:1013E600E0E018815BC40E941E1A0E94261A0E9421
:1013F6002B1A09F05BC0A981BA81AC91A33029F4FC
:10140600E981FA81E581E03009F444C0A981BA8115
:101416000E94301AE981FA810E94381AE981FA811C
:10142600F296E250FE4FA5E5BAEAA083B183E981C0
:10143600FA81F296A2E5B2E581E691E40E94411AAC
:10144600EC51FE4FA2E7B2E781E491E60E94411A11
:10145600E851FE4F0F01A981BA811E960E94471AD4
:10146600F296E451FE4F0F01A981BA811A960E94A5
:10147600471AA181AA93EA81FB81F296FA93EA932D
:10148600EC81FD810E944F1A93DCA981BA811596E1
:10149600E0E0EC93E981FA81A181AA93E0E0EA9386
:1014A600A0E0B0E0FCDCE03009F011E0E12F1881AB
:1014B600239608950E94571E24970E947F1E0E941D
:1014C600571A0E945C1A50F0AC85BD855E960E9444
:1014D600251E0E94571A0E94781E18F00E94641A50
:1014E60063C0AC85BD8592960E94691AAC85BD85A0
:1014F600EC91F0E0E130A0E0FA0741F52885398566
:10150600F901F695E7952E0F3F1F0E94701A09F014
:1015160049C00E94851A0C9111272F5F3F4F0E94E8
:10152600701A09F03FC00E94851AEC91FE2FE0E088
:101536000E2B1F2BE885E17021F0F8010E948A1D11
:1015460002C0F801FF70662777272EC0E230A0E0C0
:10155600FA0779F40E948D1A0E94D6190E94961AEB
:1015660009F5A885B985E2E00E94A21A0E94AB1A85
:101576001BC0E330A0E0FA07A9F40E948D1AE0E848
:10158600F0E060E070E00E94961A61F4A885B985E3
:10159600E4E00E94A21A0E94251EEF7FFF7F6F7F64
:1015A6007F7002C00E94B01A0E94861E2E96089571
:1015B6000E94571E24970E947D1E0E94B51A0E9403
:1015C6005C1A50F0AA89BB895E960E94251E0E946D
:1015D600B51A0E94781E10F052E087C0AA89BB890E
:1015E60092960E94251EEE83FF8368877987AA89D3
:1015F600BB89EC91F0E0E130A0E0FA0709F043C0C6
:101606000E851F85F801F695E7950E0F1F1F0E94A0
:10161600BA1A09F065C00E94CD1A51F0D901EC91B1
:10162600EF70AE2FEA85F0E00E94811DEA2B01C023
:10163600EA85D901EC930F5F1F4FAA89BB891496DF
:10164600E1E0EC930E94BA1A09F04AC00E94CD1A52
:1016560049F00E94D81AE4E00E94751DFF2766270C
:1016660077270EC0D901EC91E07F1E2E0E94D81A72
:10167600E8E00E94751DFF2766277727EF70E129AE
:10168600D901EC932DC0E230A0E0FA0789F40E945C
:10169600DD1A0E94D6190E94E61A11F5AE85BF859D
:1016A600E2E00E94F01AAA85BB85A083B18318C028
:1016B600E330A0E0FA0799F40E94DD1AE0E8F0E0D2
:1016C60060E070E00E94E61A59F4AE85BF85E4E05A
:1016D6000E94F01A0E94D81A0E944D1E01C052E0C4
:1016E600AA89BB891496E1E0EC93E52F0E94841E3B
:1016F600649608950E94571E24971A930E94F91A19
:101706000E945C1A18F00E94FE1A10F012E048C0FF
:1017160010E00E94FE1A08F043C0E985FA85FA93A4
:10172600EA93AF81B88589859A85C4DE0E94EC1953
:10173600E981FA816B817C810E94691E89F10E9490
:10174600F6190E94071B11F412E02AC00E94F6192E
:101756000E940F1B11F411E023C0E985FA85FA9364
:10176600EA93EF81F88569857A850E94521E0E9468
:10177600261A1EDF1E2F103099F4E985FA850E947D
:10178600171B29F00E941C1B1596E1E0EC93E981DA
:10179600FA816B817C81ED83FE836F837887B9CF75
:1017A600E12F18817BC20E94571E6097AC89BD89C4
:1017B6005E960E94251E0E942A1B0E942D1B0E94D7
:1017C600691EB1F4AC89BD891A960E94691A0E94F5
:1017D600321B0E946D1E39F00E94371B0E94321B7D
:1017E6000E94781E20F00E94641A0E943A1B1CC0B8
:1017F6000E943F1B0E94441B0E94491B0E94501BD3
:101806000E945C1A18F40E94641A8CC00E94371B4E
:101816000E94501B0E94781E18F40E94551B82C01D
:101826000E942D1B0E943A1B0E945A1B0E945F1B9E
:101836000E94121AEF5FFF4F6F4F7F4F0E945F1B90
:101846000E94371B0E94571A0E94781E60F0E2E041
:10185600F0E060E070E00E945F1B0E94641B18F4D9
:101866000E94691B5FC00E943F1B0E94D81A0E94FB
:10187600491B0E946E1BA1F00E94501B0E940F1B69
:1018860029F00E94501B0E94071B19F40E94551B49
:1018960049C00E94641B19F40E94691B43C0C8CF4B
:1018A6000E943F1BEA85FB856C857D850E94521E42
:1018B600AFEFBFEF8FEF9FE07BDEE03019F00E94C5
:1018C600B01A30C00E942D1B0E94691E71F00E9442
:1018D6003F1B0E94721B0E94521E0E94B51A68DEB0
:1018E600E03019F00E94B01A1DC00E94121AAC898D
:1018F600BD891A960E94301EEC89FD890E94171B2D
:1019060079F0AC89BD891E960E942B1E31976040E6
:1019160070400E94351EAC89BD891596E1E0EC93B6
:101926000E94121A669608950E94571E0E94371B3F
:10193600E250F040604070400E942A1BEC81FD811D
:10194600A68DB78D80A191A1E2E0F0E060E070E0A5
:101956000E94771B0E94431E0E94781E18F00E9468
:10196600691BC4C3EC81FD81E281F0E00E94431E45
:101976000E94A21D0E94A71D7F936F93FF93EF9372
:10198600AC81BD819A960E94251EAF91BF918F9121
:101996009F910E94441DAAC3BA93AA9324971A93AF
:1019A6000A93EE81FF81A885B9851496ED93FC9381
:1019B600A885B98516960E947C1B0E94831B0E94EF
:1019C600071B29F00E94881B0E948D1B10F0E2E085
:1019D60076C00E94951B29F40E94881BA081A33023
:1019E60009F006C00E94881BB696DF010E947C1B88
:1019F6000E94951BA1F40E949C1B3896DF010E9451
:101A0600211EAE81BF81AE17BF0710F0E2E057C0BE
:101A16000E94881BB696DF010E94251E35C00E94D3
:101A2600881BE281A0E1EA9F8001AE81BF81A017F9
:101A3600B10718F10E94881BFA93EA930E94321BA1
:101A460039DD0E94A61B0E94831B0E940F1B11F406
:101A5600E1E035C00E94831B0E945C1A28F00E94B8
:101A6600881B0E948D1B10F0E2E029C0EE81FF81E9
:101A7600E01BF10BEE83FF83D8CF0E949C1BFA93E9
:101A8600EA930E94321B50DFDF01CB01EE81FF811A
:101A96000E948A1D0E94AB1BA885B9851E960E94CE
:101AA600301E0E94881BF296DF01EE81FF810E94A4
:101AB600B01BA885B9855296ED93FC93E0E0198199
:101AC60008812A960895AA9324970E947F1EA985C5
:101AD600BA8514960E94211E31968F01002E012A86
:101AE60031F0A985BA851E960E94B81B11F4E4E070
:101AF600D3C0F801EF7009F0BCC00E941C1B1A96F7
:101B06000E94B81B61F40E94BD1B3896DF010E943B
:101B1600211E0E171F0710F0E4E0BEC0AAC0F80190
:101B26000E948A1D0F010E94BD1BE281F0E03197E1
:101B3600E021F121309709F09CC00E94BD1B0E9454
:101B4600C21BB8DC0E943A1B0E94321B0E945C1A20
:101B560010F4E2E0A1C00E94321B0E940F1B11F498
:101B6600E1E09AC00E94BD1B7E96DF010E94251E01
:101B76000E94321B0E94781E08F46BC0E885E03094
:101B860011F4E4E089C00E94BD1B0E94C21B0BDE5B
:101B96000E94CB1B0E94691E11F4E7E07DC00E94E3
:101BA600321B0E94071B11F4E2E076C00E94321B32
:101BB6000E940F1B11F4E1E06FC00E94BD1B0E9442
:101BC600CD1B11F0E1E068C00E94BD1B0E94381ACF
:101BD6000E94BD1BDF01BE96FF93EF93FD010E949D
:101BE600D41BAF91BF910E94301E30E00E94BD1BF6
:101BF600E2813E17D0F40E94BD1B3496A1E0A0837B
:101C06000E94BD1B0E94CD1B11F0E1E045C00E9461
:101C1600BD1BBE96DF010E942B1EEF5FFF4F6F4F6D
:101C26007F4F0E94351E3F5FE1CF0E94BD1BBE96CF
:101C3600FF93EF93DF010E94251EDF01CB01E32F07
:101C4600F0E00E94A21D0E94771BAF91BF910E94F7
:101C5600301E0E945A1BA985BA851A960E94301E0C
:101C66000E94BD1B0E94D41BA985BA851E960E94A0
:101C7600301EF801A985BA851496ED93FC930E944F
:101C8600BD1BF296DF01F8010E94B01BA985BA853B
:101C96005296ED93FC93E0E00E94861E2B960895E3
:101CA6000E94DC1B0E94E11B0E94E71B21F0E12F32
:101CB6000E94861E1BC20E94ED1BB9F40E94FA1BED
:101CC60011F414E012C0F901E385E87031F40E94C2
:101CD600031C0E940419E03009F001C006C00E94EE
:101CE600E11BF1DE1E2F103031F3E12F0E94861E1C
:101CF600FDC10E94DC1B14E0AC81BD811E960E94D2
:101D0600B81BD9F00E94ED1BC1F40E94FA1B11F416
:101D160014E013C0053E49F0E1E0E03011F40E3264
:101D260021F0F901E385E87009F001C006C00E94C0
:101D3600E11BC9DE1E2F1030F9F2103029F0AC81FC
:101D4600BD811E960E940E1CE12F0E94861ECEC1EA
:101D56000E94DC1B0E94E11B0E94E71BB1F40E945B
:101D6600ED1B99F4EC81FD81A289B3890C91053EA6
:101D760011F0003009F409C0EC81FD81FA93EA9371
:101D8600A1E0A1DE1E2F103051F3103029F50E947C
:101D9600ED1B11F5AC81BD8152962D913C913A9384
:101DA6002A93E0E0EA93A0E2B0E00E942F190E9495
:101DB600031C0E941D19AC81BD8154960E94211EF0
:101DC600E385E871D9011C96EC93AC81BD810E9434
:101DD600211E3496A1E0A083E12F0E94861E86C1B3
:101DE6000E941E1AEB81FC81A481B581D5DD1E2FD0
:101DF6001030D1F4A981BA810E94121CEB81FC81BA
:101E0600A685B785808991890E942B1A69F4E98194
:101E1600FA81A289B389E5EEEC93A981BA810E9481
:101E2600211E3496A1E0A083E12F18812396089500
:101E3600BA93AA9325970E947D1EAD85BE855496BA
:101E46004D915C915A934A93E0E2EA93ABE0B0E09D
:101E56000E942F19E0E0E887E9871E2F2E2FE8E081
:101E6600EA87AB85BC850E94171C0E941C1CAE0F1E
:101E7600BF1FAC91AE3209F50E94211C0E3221F42F
:101E8600A885B98513970CF003C00E942D1CF4CFCA
:101E96000F3221F00C3511F0013208F402C0E6E0F1
:101EA6006DC00E941C1C0E94341C10F4E4E201C0A8
:101EB600E0E2DA011B96EC9360C00E94211C01321D
:101EC60020F00F3211F00C3509F432C00E3219F041
:101ED600EA852E1768F0AA85A83011F40E3211F0A3
:101EE600E6E04CC028E0EBE0EA87110F110F1FC0B7
:101EF600003818F01360E6E041C0EAEDF0E0FA932E
:101F0600EA93A02FF1D9309711F0E6E037C00134FB
:101F160010F00B3508F002C0126007C0013610F051
:101F26000B3708F002C0116000520E942D1CC5CF6D
:101F36000E941C1C0E94341C10F4E4E001C0E0E086
:101F46000E2F203011F4E6E019C0DA01AC91A53E5F
:101F560019F4DA01E5E0EC93AA85A83011F4110F23
:101F6600110FE12FE370E13009F40061E12FEC700D
:101F7600E43009F40860FA010387E0E00E94841E59
:101F86002F9608950E94DC1BE1E0E03029F0AC8139
:101F9600BD81AC91A03209F006C0EC81FD8131967D
:101FA600EC83FD83F1CFAC81BD81AC91AF3229F0DA
:101FB600AC81BD81AC91AC3559F4EC81FD81319693
:101FC600EC83FD83AE81BF8116960E940E1C0AC06B
:101FD600AE81BF810E94211E7696DF010E94251EDA
:101FE6000E943C1CAC81BD81AC91BB27909760F4EC
:101FF6000E94421CA0E0B0E0CFDC1E2FAE81BF8164
:1020060052960E94471C3DC00E94421CDE01169655
:102016000FDF1E2F1030A9F5AE81BF8141DE1E2FC6
:10202600AE81BF8154960E94211EE385E4700E2F77
:10203600103039F0143011F4003009F001C015E009
:1020460020C00030F1F4AE81BF8152962D913C91B3
:10205600F901E385E07111F415E013C00E944C1CF0
:102066000E949D1D7F936F93FF93EF930E944F1CD9
:10207600AF91BF918F919F910E94541C0E943C1C6E
:10208600C3CFE12F0E94861E289608950E94571EF0
:10209600EC81FD81A181AA93ED81FE81F296FA93EE
:1020A600EA93EB81FC816D817E810E94171A11F003
:1020B600E3E01CC0EC81FD810E94591C11F0E2E0B6
:1020C60015C0AC81BD81A859BF4F0E94631C11F495
:1020D600E0E00CC0EC81FD81F296EE5AFF4FDF0185
:1020E6000E94631C11F4E0E001C0E1E02696089529
:1020F600AA9364970E947D1EAD8DBE8D0E94211EFF
:10210600E887F987A885B985EC91E0530E2F0A3048
:1021160020F41196AC91AA3309F00AC0E885F98536
:102126003296E887F987AD8DBE8DED93FC9302C09C
:102136000091DE0A013010F0EBE0C9C1E02F0E94E9
:10214600711C0E94171CAB8DBC8DED93FC93EE8128
:10215600FF81309711F4ECE0BAC1AE81BF81EC91FA
:10216600E03089F0EE81FF81A1810E946D065E2F2D
:1021760050FD09C0EA8DE03011F052FD01C002C0E9
:10218600EAE0A5C1A3C1AE81BF81E0E0EC93E02FF8
:10219600AE81BF811196EC93EE81FF81A1810E94F1
:1021A600A1055E2F50FF02C0E3E091C1EA8DE03049
:1021B60011F052FD01C002C0EAE089C10E94421C32
:1021C6000E94691BE88FF98F6A8F7B8FDF01CB0135
:1021D6005DDF1E2F1130C9F4EE81FF81F296E254C5
:1021E600FE4F9F01E481E03081F0D90118960E94EC
:1021F600251EEE8BFF8B688F798F0E94421CA88D5F
:10220600B98D8A8D9B8D42DF1E2F133011F4E1E0CC
:102216005EC1103049F4AE81BF81DD960E94211E59
:10222600E030A2E0FA0711F0EDE051C1AE81BF81C6
:10223600A85BBF4F0E94AB1A0E94791C0E94721BBA
:102246000E94691E41F4AE81BF81AA5ABF4F0E9407
:10225600251E0E94791C0E94721BAE81BF815A9670
:102266000E94301EEE81FF81EE5BFF4FE081AE8162
:10227600BF811396EC93EE81FF81E381F0E00E942B
:10228600441B0E94A21D0E94A71D0E94791C0E9449
:102296007E1C0E94851CAE81BF8192960E94301ED4
:1022A600EE81FF81E7ADAE81BF811296EC93AE81E0
:1022B600BF81AD5BBF4F0E94211EAE81BF811896C4
:1022C600ED93FC93AE81BF81AB5BBF4F0E94AB1A0F
:1022D600EE87FF87688B798B0E94691E51F4AE8169
:1022E600BF81AE5ABF4F0E94251EEE87FF87688BBF
:1022F600798B0E947E1C0E94B51A662777270E945A
:10230600771B0E94441B0E944E1D7F936F93FF9381
:10231600EF930E948A1CAF91BF918F919F91662780
:1023260077270E94531DEE81FF81E281F0E00E9433
:10233600A21D0E94E01DEE5FFF4F6F4F7F4FEA87A1
:10234600FB876C877D87AE81BF815E960E94301EBB
:1023560011E00E94D81AA73FEFE0BE07E0E08E0723
:10236600E0E09E0708F012E00E94D81AA73FEFEFC0
:10237600BE07E0E08E07E0E09E0708F013E01330AA
:1023860039F4AE81BF81A25ABF4F0E94251E02C0FA
:102396000E94921CAE81BF8196960E94301E0E94BA
:1023A600921C7F936F93FF93EF930E948A1CAF91C9
:1023B600BF918F919F910E94AB1BAE81BF819A9670
:1023C6000E94301EAE81BF811E960E94B01A0E94E6
:1023D600301EAE81BF811496E0E0EC93133009F015
:1023E6005FC0AE81BF811596EC93AE81BF81AE59B9
:1023F600BF4F0E94211E0E94851CAE81BF8152964E
:102406000E94301EEE81FF81A181AA93EF81F8859B
:10241600F296FA93EA93E985FA850E944F1A0E948A
:102426007706E03011F5EE81FF810E94591CE9F430
:10243600AE81BF81D2960E94251EE235A2E5FA073B
:10244600A1E66A07A1E47A0781F4EE81FF81F2969C
:10245600EC51FE4FDF010E94251EE237A2E7FA0784
:10246600A1E46A07A1E67A0709F01AC0EE81FF81A6
:10247600F296E451FE4FDF010E94251EAE81BF8118
:102486001A960E94301EEE81FF81F296E851FE4FA9
:10249600DF010E94251EAE81BF811E960E94301E5E
:1024A600AE81BF811C930E94301AAE81BF815696C1
:1024B6000E940E1CACEDBAE0ED91FD913196FE93B3
:1024C600EE93AE81BF811696ED93FC93E0E00E94F9
:1024D600841E6F960895BA93AA93EA81FB8130977A
:1024E60071F0AA81BB81EC91E03049F0EA81FB8171
:1024F600A681B781E881F981EA17FB0711F0E9E0C7
:102506000AC0EA81FB81A1810E946D06E17011F08B
:10251600E3E001C0E0E024960895BA93AA931A93E3
:102526000A93AC81A13010F0EBE020C0EC810E9450
:10253600711C0D911C91002E012A19F0D801E0E0C2
:10254600EC93EA81FB81309721F0AA81BB81E0E020
:10255600EC93EC81AAEDBAE0F0E0EE0FFF1FEA0F74
:10256600FB1FAA81BB81A083B183E0E019810881AA
:1025760025960895AA93A2970E947F1EA9A5BAA59B
:102586000E94471CEEA1EF71EEA3FE01B796FA93E7
:10259600EA93FE017296FA93EA93EAA5EE71AE2FDC
:1025A600A7DD1E2F103009F012C1FE013496ECA3F0
:1025B600FDA3FE017096FA93EA93A9A5BAA5E2DCFB
:1025C6001E2FEEA1EC7109F495C02897103089F002
:1025D600143021F4DE015896BBDB1E2F103019F0A3
:1025E600E12F2896F4C0EEA5E860EEA72AA53BA544
:1025F60068C0EEA5E47019F0E8E02896E8C02AA5C0
:102606003BA5022E032A21F0F901E385E17119F0B9
:10261600E7E02896DCC0EEA5E87009F452C00E94F7
:102626004C1C0E949D1D7F936F93FF93EF930E9416
:102636004F1CAF91BF918F919F910E94541C0E9495
:102646002A1BF9017496A0E0B0E0A083B183F901DA
:102656007A96A083B183F9017C960E94261A0E947D
:102666004D1EA88DB98D1496E1E0EC93A88DB98D19
:102676009E960E94691A0E94371B0E94691EB9F035
:10268600E88DF98DFA93EA930E94831B33D81E2FA7
:10269600103011F028969BC00E94371BE150F04085
:1026A60060407040A88DB98D1A960E94301EE88D44
:1026B600F98D0E94991C0E942B1A19F0E12F289679
:1026C60086C0EEA5E870A1F0F9013B96A0E0A083D4
:1026D6000E94F6080E94CB1BD9011E960E94301E4E
:1026E600A88DB98D1496E1E0EC93EEA5E062EEA715
:1026F600289619C0103011F0E12F69C02AA13BA11C
:10270600022E032A21F0F901E385E07111F0E4E0DD
:102716005EC0EEA1E27021F0F901E385E17009F4F3
:1027260002C0E7E054C0A889B9899E960E94251E7A
:10273600A9A5BAA55A960E94301EEAA1FBA1A9A591
:10274600BAA55E96ED93FC93EEA1A9A5BAA514963B
:10275600EC930E944C1C0E949D1D7F936F93FF93E8
:10276600EF930E944F1CAF91BF918F919F910E9452
:10277600541CA9A5BAA51E960E94301ED9015C96C6
:102786000E94251EA9A5BAA51A960E94301EA9A5C3
:10279600BAA516960E940E1CA9A5BAA51596EFEF26
:1027A600EC93A9A5BAA556960E940E1CE889F9894C
:1027B600A9A5BAA5ED93FC93A889B98916960E9496
:1027C600211EA9A5BAA51296ED93FC93E0E00E94FE
:1027D600861EAB960895BA93AA932A970E947D1EE9
:1027E600EC89FD89EE83FF83A889B9890E94471C7D
:1027F6000E94A01CE88DF98D0E94A31C11F0E12F08
:10280600B8C1EE89FF89A481A07811F0E2E0B1C1D8
:10281600EE89FF89A481A27011F4E7E0AAC1EE89CE
:10282600FF89A285B38584859585EA89FB890E94FF
:10283600AB1B7F936F93FF93EF930E94AA1CAF91FC
:10284600BF918F919F910E94781E18F4E0E0EA8B69
:10285600EB8BEA89FB89309709F471C10E94B01CA1
:10286600FD01BC01F170309709F020C1EE89FF89A6
:1028760005800E94B71CE2810E1608F448C0AE8996
:10288600BF8916960E94B81BC1F4AE89BF891E96F1
:102896000E94251E0E94BC1C0E946E1B69F40E94A9
:1028A600A01C0E94261A0E94D60B0E94BC1CAE8950
:1028B600BF891E960E94301E08C00E94A01C0E945E
:1028C600C11C0E94D60B0E94BC1C0E946E1B09F400
:1028D60036C10E94501B0E94071B21F40E94C81C8F
:1028E600E2E047C10E94501B0E940F1B21F40E9488
:1028F600C81CE1E03EC10E94551BAE89BF895296B5
:102906000E94301EAE89BF891596E0E0EC93EE89F1
:10291600FF89A481A07489F00E94B71C0E94CF1C75
:10292600E98DFA8D0E94D71C0E94DC1C21F00E94C2
:10293600C81CE1E01EC10E94E31C0E94A01C0E946C
:10294600C11C0E94970C0E945F1B0E94121A0E94D3
:10295600691E21F40E94C81CE2E00BC10E94EA1C19
:102966000E94571A0E94A21D0E94441D0E945F1BCE
:10297600AA89BB89E0E0F2E00E94CD1DAF01042EDA
:10298600052A09F468C00E94EA1CE40FF51F0F012E
:102996000E94B71CE281D001F0E0EA17FB0750F471
:1029A6000E94B71CE281F0E0DF010E94EA1CAE1B28
:1029B600BF0BAD010E94B71CE181EA93EF81F88558
:1029C600FA93EA93EB85FC856D857E850E94521EFF
:1029D600A42F0E94DB06E03021F00E94C81CE1E033
:1029E600C8C00E94EF1C0E94531DFA016627772774
:1029F6000E94781E18F5EE89FF89B096FA93EA933D
:102A0600E88DF98D0E94D71CEA85FB856C857D854E
:102A16000E94531DE0E0F2E060E070E00E94A71D16
:102A2600A885B98588279927EA0FFB1FFA93EA93A9
:102A3600A0E0B2E00E941D190E94E31CAE89BF8986
:102A46001596EC91E40FEC93FA01EE0FFF1FFE2FA3
:102A5600E0E09F014FC00E94EF1C0E94731EC9F068
:102A66000E94B01C0D010E94AA1CD0010E94781E73
:102A760058F40E94B71C0E94CF1CEB85FC856D851F
:102A86007E850E94171A09F404C00E94C81CE1E062
:102A960070C00E94121AAE89BF8956960E94301ED7
:102AA600AE89BF891596EC91EF5FEC930E94F31CFB
:102AB600A0E0B2E0AE1BBF0B9D01EA89FB89E217DD
:102AC600F30710F42A893B890E94F31CAE89BF895B
:102AD6009096EA0FFB1FFA93EA93E885F985FA9335
:102AE600EA93D9010E941D19AE89BF891496EC910B
:102AF600E064EC93F901AE81BF81EA0FFB1FEE8320
:102B0600FF83EE89FF8936960F01DF010E94251E9D
:102B1600DF01CB01F9010E94AB1BD0010E94301EE0
:102B2600A889B989ED91FD91E20FF31FFE93EE930B
:102B3600EA89FB89E21BF30BEA8BFB8B8ACE0E94A8
:102B4600B01C0D010E94AA1CD0010E94731E50F4F5
:102B5600AE89BF8916960E94251EAE89BF891A9630
:102B66000E94301EAE89BF891496EC91E062EC9308
:102B7600E0E00E94841E68960895BA93AA9324976B
:102B86000E947F1E0E94881BFA93EA93EA85FB85C2
:102B96000E94A31C09F072C0E885F985A481A07281
:102BA60009F46CC0A481A074C1F00E94881BE18165
:102BB600EA93E985FA85B096FA93EA93EB85FC8564
:102BC6000E94D71C0E94DC1C11F0E1E058C0A885C9
:102BD600B9851496EC91EF7BEC930E94881BFA93CF
:102BE600EA93EA85FB85A28DB38D848D958D0E942F
:102BF6002B1A09F043C0A885B9855E962D913C91A4
:102C0600D9011B96EC91E062EC93A885B9851A96DA
:102C16000E94251ED9015C960E94301EA885B985A2
:102C26001E960E94211ED9015A96ED93FC93E885C3
:102C3600F985A685B78580899189FD01BC010E9429
:102C4600981DD9015496ED93FC930E94F6080E94B4
:102C5600CB1BD90156960E94301EA885B9851496BD
:102C6600EC91EF7DEC930E94881B3496A1E0A08343
:102C76000E94881BDF010E94F6091E2FE12F0E9489
:102C8600861E2A960895BA93AA931A93A981BA81A1
:102C960074DF1E2F103021F4A981BA810E94471CCF
:102CA600E12F0C94D318BA93AA93EC970E947F1E37
:102CB600FE01E05CFF4F0E94FA1CA1E019DA1E2F0C
:102CC600103009F083C0FE013896EEAFFFAFFE016B
:102CD600BA96FA93EA93DE01AE5BBF4F0D90BC91B4
:102CE600A02D50D91E2FE1E0E03039F0103029F444
:102CF600EEADFFADE385E07209F401C016E01030D9
:102D060009F064C02CAD3DAD022E032A11F4E6E0B5
:102D16005EC0F901E385E17011F0E7E058C00E945A
:102D26004C1C0E949D1D7F936F93FF93EF930E940F
:102D36004F1CAF91BF918F919F910E94541C0E948E
:102D46003A1BF901E385E07139F10E94321B0E94BA
:102D56005C1A10F4E2E03BC0FE0174960E94FA1C75
:102D6600A6E1B0E00E941D190E945A1BEA8FFB8F54
:102D76006C8F7D8FFE017496FA93EA93A2E00E940F
:102D8600E71B21F5DE0154960E947C0E1E2F1030A3
:102D960009F417E01430D1F4DE019A960E94F30E7E
:102DA6001E2F103099F40E945A1B0E94691E39F09A
:102DB600EAA5FBA50E94991C0E947D0B1E2F1030D0
:102DC60029F4AAA5BBA50E94F6091E2FE12F0E9491
:102DD600861EEF96239608955F9BFECFECB108956D
:102DE600AA935D9BFECFE881ECB90C940219BA93C5
:102DF600AA93AA81F5DFA881B981ED91FD9131965B
:102E0600FE93EE930C94D418BA93AA9326970E9435
:102E16007D1E10E0AC85BD850E94471CEA89FB89B2
:102E26003196EA8BFB8B3197E4912E2FE03009F433
:102E36001FC1E12FE03039F4253211F411E002C050
:102E46000E94011D14C1E130A9F4253219F40E9433
:102E5600011D0CC112E040E000E02D3211F401E04A
:102E660006C12B3211F44BE202C1203211F440E2CA
:102E7600FEC002C0E23039F450E013E0203311F412
:102E86000068F5C003C0E33009F0F1C0203310F04C
:102E96002A3308F007C0AAE05A9F502DE22FE053CC
:102EA6005E0FE5C0E22FE33649F40E94081DE8896B
:102EB600F989A481AA930E940E1DD8C0E33769F44C
:102EC6000E94081DA889B98914960E94171CAE8114
:102ED600BF810E943F191E2F0FC0E03789F40E9460
:102EE600081DA889B98914960E94171CAE81BF8156
:102EF6000E944B191E2F086002600F7730E034C025
:102F0600E43611F0E93611F4046002C0E53731F415
:102F1600E2E1F1E0EE83FF8315E00CC0E83511F441
:102F2600086003C0E83709F0A1C0ECE1F1E0EE83E8
:102F3600FF8314E002FF14C00E94081D0E94141DA6
:102F4600AB85AA233AF4EA85FB850E945D1DEA87D4
:102F5600FB874DE2403011F01F5F01C00B7F04C0BC
:102F66000E94081D0E94141D00FD11C0151778F45B
:102F760007FF08C002FF04C00B7F242F115001C0B9
:102F860020E301C020E20E94011D5150EFCF312FF6
:102F960001FF17C03030A1F003FF06C0EE81FF81AC
:102FA6002591EE83FF8305C0AE81BF812D91AE834F
:102FB600BF830E94011D503009F051503150EACFB5
:102FC6004BC020E3EE81FF810E943A1EE887F98715
:102FD600EE81FF813296EE83FF83E885F985AA8527
:102FE600BB85AE17BF0750F02F5FA885B985EA8568
:102FF600FB85EA1BFB0BEA87FB87EFCF2A3328F01A
:1030060003FF02C0295F01C0295D04FD1AC02133F8
:1030160020F4A885B985119709F409C0531710F053
:1030260000FF01C013C020E207FF0BC020E30061D0
:1030360002FF07C00B7F4A930E940E1D503009F015
:1030460051500E94011D503009F051503150A88551
:10305600B985129708F0B5CF00FF08C0503031F09F
:103066005150E0E2EA930E940E1DF8CF10E0D6CE52
:10307600AC85BD850E94211E0E94841E649608951B
:10308600FF92F82E26971A930A93DE0114960E9451
:10309600401D8D01E0E0EC83ED83EE83EF83DE01DE
:1030A60018960E94401D0E94121C1A930A93EAEF7A
:1030B600F6E1FA93EA93DE011896A6DE19810881F5
:1030C6002896FF900895AA93E5B3EF70AE2FE88196
:1030D600E07FEA2BE5BB8DE08A95F1F7AA9A8DE0B1
:1030E6008A95F1F7AA988DE08A95F1F788C0AA9398
:1030F600A881E9DFE881E295E883A881E4DF85E835
:103106008A95F1F77CC0AA93E881F0E0E152F54F89
:10311600E081A981AE0FEBDF498098802296089561
:10312600A2E00E941C1DACE0E2DFA1E00E941C1D93
:10313600E0E09E2E4E2E0895AA93A881AA3011F0A3
:10314600481448F0E0E0EA939394A92DDCDFA881C7
:10315600AA3009F454C04394A89AA881C8DFA89855
:103166004EC0BA93AA931A93A981BA81ED91A98305
:10317600BA831E2FE03019F0A12FDEDFF5CF10C085
:10318600BA93AA931A93E981FA813196E983FA836D
:103196003197E4911E2FE03019F0A12FCDDFF3CF48
:1031A600188123960895AA93E4B3E06FE4BBA29A2C
:1031B600A09AA19AAA98A898A9988880E881E05828
:1031C600E093E10AE881E054E093E20AA4E1B0E08A
:1031D6000E94361D0E94221D0E94221D0E94221D51
:1031E600A0E271DF88EC90E00197F1F7A8E27FDFBB
:1031F600A4E07DDFA5E87BDFA6E079DF91DF2196FD
:103206000895BA93AA936627772789919991E991A8
:10321600F991A991B991009629F001976D91719153
:103226006717C9F3671B10F4EFEF0895E0E009F0A4
:10323600E3950895BA93AA9399818881009641F0FF
:10324600BD81AC81FB81EA8161916D930197E1F7C4
:10325600FD81EC8126960895BA93AA93B981A88137
:10326600109631F0FC81EB816A8161931197E9F741
:10327600EB81FC8125960895BA93AA93A991B991F9
:10328600EE27FF276D91662311F03196FBCF089547
:10329600BA93AA93AA27BB27E991F9910590002032
:1032A60011F01196FBCFFD010895BA93AA93AA8156
:1032B600BB81CD01E881F9810590002011F4FC0164
:1032C60009C06D916015C1F30196DC01662391F783
:1032D600EE27FF2724960895BA93AA9324971A9364
:1032E6000A93E0E0FAEC6AE97BE30E94A61B00E0A1
:1032F600AB85AA2352F40E94121A0E94611D0E94F5
:103306005F1B0E942A1DEDE2EC930E94311D0E9474
:10331600E01D1E2F103039F4003029F40E94831B63
:103326000E94071B31F40E942A1DE12FE05DEC93F9
:1033360001E00E94311D0E940A1E0E945F1B0E942E
:10334600831BEAE0F0E060E070E00E94E01D0E946E
:10335600A61B0E94951BC9F6AE81BF81E0E0EC93E7
:10336600198108812C960895E0E0EA93A0E00C9478
:1033760086180E94C318E0E0EA93A1E00C94861830
:103386000E944B03A5E00E94E202E2E8FAE0FA930B
:10339600EA930895A091CF0AB091D00A8091D10AFC
:1033A6009091D20A0895E0E0F1E060E070E00895BF
:1033B6000E94F316A0E00C94F3160E94C318ACED1D
:1033C600B5E00C94361DF0E00E94A21DDF01CB0192
:1033D6000895E983FA836B837C830895ED81FE81EA
:1033E6006F8178850895A981BA818B819C81089522
:1033F600E985FA85A181AA93EA85FB85F296FA9377
:10340600EA93EC81FD816E817F810E94521EA1E0CC
:103416000C94DB06A2A1B3A184A195A10895E88529
:10342600F9856A857B8508950E94521EA1E00E9457
:103436007706E0300895BA93AA931A93E981FA8140
:10344600FA93EA930895A0E0B0E080E090E0089552
:103456000E948E091E2F103008959E96E0E0F0E03F
:1034660060E070E00E94301E0895F296FA93EA93A7
:10347600E0E0EA93A0E0B2E00C942F190E944D1E02
:10348600E981FA81F29608950E94251ED0010E94D4
:10349600301EE981FA810895A289B38984899589C4
:1034A6000E94571EA1E00895A885B9858A859B8547
:1034B6000895A230E0E0BE07E0E08E07E0E09E0758
:1034C6000895E1E0F0E060E070E008950E94251EB6
:1034D600EC83FD836E837F830895EC85FD85FA93E7
:1034E600EA93D901E0E0F2E00E94CD1DAE81BF81F2
:1034F60088859985662777270E94491D0E948E092F
:10350600E0300895AC85BD85D296F901F170AE0F15
:10351600BF1F0895EC85FD85FA93EA93AA85BB85BE
:103526008C859D8508950E94E01DAE81BF818885AA
:1035360099850E94491D0E948E09E03008950E94D7
:10354600C71DF170AC85BD85D296AE0FBF1F08951D
:103556000E94211E662777270895EFEFFFEF6FEF92
:103566007FEF0895AE85BF85888999890895EA8990
:10357600FB89FA93EA93D801E0E0F2E00E94CD1DC0
:1035860093DF662777270E94491D0E948E095E2FCA
:1035960050300895AA89BB89D296F801F170EA0FD6
:1035A600FB1F9F01EE85E1700895AA85BB858C857A
:1035B6009D850895EA89FB89FA93EA93A889B989D2
:1035C6008A899B8908950E94E01D6EDF0E94491D2D
:1035D6000E948E095E2F503008950E94C71DF1701B
:1035E600AA89BB89D296EA0FFB1F0895AD81BE81D9
:1035F6008F8198850895A985BA855E960E94251EB5
:10360600F5DF0E94781E0895A130E0E0BE07E0E0F5
:103616008E07E0E09E070895AF3FEFEFBE07EFEF9E
:103626008E07EFEF9E070895A685B7858089918955
:10363600F3CFA985BA851E960E942B1EEF5FFF4F1A
:103646006F4F7F4F0E94351EA985BA8508950E9447
:10365600481E0895E889F9896A897B890895AC81AD
:10366600BD818E819F8108950E943E1E0895EC8340
:10367600FD836E837F830895EC89FD89FA93EA932F
:103686000895AA89BB898C899D8908950E945D0A3F
:10369600EC87FD876E877F870895AC85BD858E850F
:1036A6009F850895EC85FD856E857F850895EC815F
:1036B600FD816E817F810895E887F9876A877B8718
:1036C6000895F5DFF1DE0E94731E0895E0E0F0E054
:1036D60060E070E00895E6DF0E94691E0895EA89B9
:1036E600FB896C897D8908950E945C1E0E944E1D8F
:1036F60008950E94251EEA83FB836C837D830895CB
:10370600AA81BB818C819D810895A885B9850E9477
:10371600211E08957E96DF010E94251EF1DF0E947C
:10372600781E0895EA81FB816C817D810E94691E65
:103736000895EA81FB816C817D81A885B9851A96F9
:103746000E94301EE2CFEA83FB836C837D8308955B
:10375600662777270E94441D0895EF70F070EE0FDC
:103766000E94811DEA0FFB1F08950E94251E0E94DC
:10377600691E0895A985BA850E94211E0895FA93A7
:10378600EA93EB85FC85A285B385848595850895A6
:103796006EDF8DCFFA93EA9356DE0E948E09E030F3
:1037A6000895FA93EA93AE81BF81888599850C9432
:1037B600970CBA93AA930E947F1E0895EC81FD810F
:1037C600FA93EA93A0E00895B0E00E94CF0C1E2F72
:1037D60010300895AC81BD810E94211EFA93EA93B0
:1037E600EE81FF81A685B7858089918931CEAC812E
:1037F600BD8152962D913C91D9010C9100300895CE
:103806003A932A93EE81FF81A489B589BA93AA9344
:10381600ABE0B0E008955ADF0E94301E08950E9482
:10382600211EFA93EA9308950E94211EEE83FF83D8
:103836000895E885F985AE81BF810895E885F98503
:103846003196E887F9873197AE81BF81AE0FBF1FEA
:103856000C910895E22F2F5FF0E0E40FF51F00832F
:103866000895EA0FFB1FAB85BC85ED93FC930132EF
:103876000895AE81BF8116960E94301E0895EE818E
:10388600FF81FA93EA930895E0E0F0E0ED93FC936C
:103896000895D90154965CCED9015A960E94211EEC
:1038A6000895662777270E94581D0895F296E250DC
:1038B600FE4FDF010E94211EE535AAEAFA070895A8
:1038C6000E94251EEF7FFF7F6F7F7070E634A1E4B4
:1038D600FA07A4E56A07A0E07A070895AAEDBAE018
:1038E600F0E0EE0FFF1FAE0FBF1F0895EA8BFB8BB4
:1038F6006C8B7D8B0895AE81BF81A05CBF4F0E940B
:10390600211E0895AE89BF89888D998D21CFEE81BC
:10391600FF81A085B185FD010E948A1D0895EE8173
:10392600FF8178DDDCDE0E94441D0895FA93EA9358
:10393600AE81BF81888599850895AE89BF896FCF8D
:10394600A281B3810E946E121E2F10300895AE8997
:10395600BF891A960E94251E0895EE89FF89A681C1
:10396600B781808591850895AE89BF890E94211E01
:103976000895EC87FD876E877F870895E88DF98D1A
:10398600A289B389848995890895AE89BF891496D9
:10399600EC91E068EC930895E181EA93EF89F88D64
:1039A600B096FA93EA930895A689B789808D918D8A
:1039B60008950E94571EA1E00E94DB06E03008959C
:1039C600AE89BF891496EC91EF7BEC930895EE894E
:1039D600FF89E581F0E00895EE89FF89E5DF1FCDD7
:1039E600AE89BF8916960E94211EF1700895FA933A
:1039F600EA93FE01BC96FA93EA9308952A93AD855D
:103A0600BE85EF85F88909950895E889F98934977F
:103A1600E88BF98B0895AD85BE85EF85F889099504
:103A26000895A889B98914960E94211EEA87FB8702
:103A360008950E947A18A3E0B0E00C94361DA0E326
:103A46000E94661888EC90E00197F1F70895AE8120
:103A5600BF811196AE83BF8311970895EA81FB81DA
:103A66006C817D8121CD109639F080ED97E001972C
:103A7600F1F7A8951197C9F708950024AF0DB01D69
:103A86000895EA0FFB1F681F791F0895AE0FBF1F29
:103A9600861F971F0895EA1BFB0B680B790B089589
:103AA600AE1BBF0B860B970B0895EA2BFB2B682BDF
:103AB600792B0895F195E195F0400895F09560957C
:103AC6007095E195FF4F6F4F7F4F0895EE230E2EB1
:103AD600FD01BC0131F0EE0FFF1F661F771F0A9430
:103AE600D1F70895EE230E2EFD01BC0131F0769537
:103AF6006795F795E7950A94D1F70895EE0FFF1F9E
:103B0600EE0FFF1FEE0FFF1FEE0FFF1F0895F69536
:103B1600E795F695E795F695E795F695E795089571
:103B2600EE0FFF1F661F771F0895E62FF72F60E041
:103B360070E008956E2F7F2FE0E0F0E008956F2F7C
:103B4600660F660B762F08957A9F702D6B9F700D0A
:103B5600F89F700DE99F700D6A9F602D710DFB9F98
:103B6600600D711DE89F600D711D8827FA9FF02D6D
:103B7600610D781FEB9FF00D611D781FEA9FE02D08
:103B8600F10D681F781F08956E2F6A9FF0016B9FD5
:103B9600F00D08950024112490E1AA0FBB1F001C0C
:103BA600111C0E1A1F0A18F40E0E1F1E01C0A1606A
:103BB6009A9599F7FD01D00108953F934F935F932E
:103BC600002411244427552730E2AA0FBB1F881F63
:103BD600991F001C111C441F551F0E1A1F0A460B65
:103BE600570B28F40E0E1F1E461F571F01C0A1605B
:103BF6003A9559F7FD01BC01D001CA015F914F9179
:103C06003F91089508D0D9DF0EF458DF0895D5DF27
:103C1600FD01BC010895E89477FF02C04FDF689468
:103C260097FF0BC00024A095B095809590951196AE
:103C3600801D901D00F8039400FA0895ED91FC9103
:103C460011970895ED91FD916D917C9113970895CB
:103C5600ED91FD916D917D910895ED93FD936D9399
:103C66007C9308957E936E93FE93EE93089505904C
:103C7600F491E02D0895E881F9816A817B810895A8
:103C8600A881B9818A819B810895E883F9836A8333
:103C96007B830895A083B1838283938308957A9367
:103CA6006A93FA93EA9308959A938A93BA93AA9396
:103CB6000895182E862F612D192E972F712D1B2EE4
:103CC600BF2FF12D1A2EAE2FE12D089530976040AB
:103CD6007040089500240A160B0608060906089582
:103CE600EA17FB07680779070895AE17BF07860727
:103CF600970708955A934A933A932A931A930A93E5
:103D060008955D814C813B812A811981088108953E
:00000001FF
